{
  "contractName": "ExerciceSolution",
  "abi": [
    {
      "inputs": [
        {
          "internalType": "contract ERC20Claimable",
          "name": "_claimableERC20",
          "type": "address"
        }
      ],
      "stateMutability": "nonpayable",
      "type": "constructor"
    },
    {
      "anonymous": false,
      "inputs": [
        {
          "indexed": false,
          "internalType": "address",
          "name": "addrClaimer",
          "type": "address"
        },
        {
          "indexed": false,
          "internalType": "bool",
          "name": "status",
          "type": "bool"
        },
        {
          "indexed": false,
          "internalType": "uint256",
          "name": "amount",
          "type": "uint256"
        }
      ],
      "name": "claimed",
      "type": "event"
    },
    {
      "anonymous": false,
      "inputs": [
        {
          "indexed": false,
          "internalType": "address",
          "name": "addrwithdrawer",
          "type": "address"
        },
        {
          "indexed": false,
          "internalType": "bool",
          "name": "status",
          "type": "bool"
        },
        {
          "indexed": false,
          "internalType": "uint256",
          "name": "amount",
          "type": "uint256"
        }
      ],
      "name": "withdrawn",
      "type": "event"
    },
    {
      "stateMutability": "payable",
      "type": "fallback",
      "payable": true
    },
    {
      "inputs": [],
      "name": "Claimable",
      "outputs": [
        {
          "internalType": "contract ERC20Claimable",
          "name": "",
          "type": "address"
        }
      ],
      "stateMutability": "view",
      "type": "function",
      "constant": true
    },
    {
      "inputs": [
        {
          "internalType": "address",
          "name": "",
          "type": "address"
        }
      ],
      "name": "claimedTokenAddress",
      "outputs": [
        {
          "internalType": "uint256",
          "name": "",
          "type": "uint256"
        }
      ],
      "stateMutability": "view",
      "type": "function",
      "constant": true
    },
    {
      "stateMutability": "payable",
      "type": "receive",
      "payable": true
    },
    {
      "inputs": [],
      "name": "claimTokensOnBehalf",
      "outputs": [],
      "stateMutability": "nonpayable",
      "type": "function"
    },
    {
      "inputs": [
        {
          "internalType": "address",
          "name": "callerAddress",
          "type": "address"
        }
      ],
      "name": "tokensInCustody",
      "outputs": [
        {
          "internalType": "uint256",
          "name": "",
          "type": "uint256"
        }
      ],
      "stateMutability": "nonpayable",
      "type": "function"
    },
    {
      "inputs": [
        {
          "internalType": "uint256",
          "name": "amountToWithdraw",
          "type": "uint256"
        }
      ],
      "name": "withdrawTokens",
      "outputs": [
        {
          "internalType": "uint256",
          "name": "",
          "type": "uint256"
        }
      ],
      "stateMutability": "nonpayable",
      "type": "function"
    }
  ],
  "bytecode": "0x608060405234801561001057600080fd5b506040516109ae3803806109ae8339818101604052602081101561003357600080fd5b810190808051906020019092919050505080600160006101000a81548173ffffffffffffffffffffffffffffffffffffffff021916908373ffffffffffffffffffffffffffffffffffffffff16021790555050610919806100956000396000f3fe60806040526004361061004e5760003560e01c80630776d118146100575780630e4f7f36146100bc578063315a095d146100d3578063402a1d4f14610122578063a66d0bd51461017957610055565b3661005557005b005b34801561006357600080fd5b506100a66004803603602081101561007a57600080fd5b81019080803573ffffffffffffffffffffffffffffffffffffffff1690602001909291905050506101de565b6040518082815260200191505060405180910390f35b3480156100c857600080fd5b506100d1610226565b005b3480156100df57600080fd5b5061010c600480360360208110156100f657600080fd5b8101908080359060200190929190505050610534565b6040518082815260200191505060405180910390f35b34801561012e57600080fd5b5061013761085c565b604051808273ffffffffffffffffffffffffffffffffffffffff1673ffffffffffffffffffffffffffffffffffffffff16815260200191505060405180910390f35b34801561018557600080fd5b506101c86004803603602081101561019c57600080fd5b81019080803573ffffffffffffffffffffffffffffffffffffffff169060200190929190505050610882565b6040518082815260200191505060405180910390f35b60008060008373ffffffffffffffffffffffffffffffffffffffff1673ffffffffffffffffffffffffffffffffffffffff168152602001908152602001600020549050919050565b6000600160009054906101000a900473ffffffffffffffffffffffffffffffffffffffff1673ffffffffffffffffffffffffffffffffffffffff166370a08231306040518263ffffffff1660e01b8152600401808273ffffffffffffffffffffffffffffffffffffffff1673ffffffffffffffffffffffffffffffffffffffff16815260200191505060206040518083038186803b1580156102c757600080fd5b505afa1580156102db573d6000803e3d6000fd5b505050506040513d60208110156102f157600080fd5b81019080805190602001909291905050509050600160009054906101000a900473ffffffffffffffffffffffffffffffffffffffff1673ffffffffffffffffffffffffffffffffffffffff166348c54b9d6040518163ffffffff1660e01b8152600401600060405180830381600087803b15801561036e57600080fd5b505af1158015610382573d6000803e3d6000fd5b505050506000600160009054906101000a900473ffffffffffffffffffffffffffffffffffffffff1673ffffffffffffffffffffffffffffffffffffffff166370a08231306040518263ffffffff1660e01b8152600401808273ffffffffffffffffffffffffffffffffffffffff1673ffffffffffffffffffffffffffffffffffffffff16815260200191505060206040518083038186803b15801561042757600080fd5b505afa15801561043b573d6000803e3d6000fd5b505050506040513d602081101561045157600080fd5b8101908080519060200190929190505050905060008282039050806000803373ffffffffffffffffffffffffffffffffffffffff1673ffffffffffffffffffffffffffffffffffffffff168152602001908152602001600020600082825401925050819055507f3a2ab24c5a179e8d93bc9d204157eea96a3a8de401f3fb03bdba07fb672284f433600183604051808473ffffffffffffffffffffffffffffffffffffffff1673ffffffffffffffffffffffffffffffffffffffff16815260200183151515158152602001828152602001935050505060405180910390a1505050565b6000806000803373ffffffffffffffffffffffffffffffffffffffff1673ffffffffffffffffffffffffffffffffffffffff16815260200190815260200160002054905060008060003373ffffffffffffffffffffffffffffffffffffffff1673ffffffffffffffffffffffffffffffffffffffff168152602001908152602001600020541161060f576040517f08c379a000000000000000000000000000000000000000000000000000000000815260040180806020018281038252602581526020018061089b6025913960400191505060405180910390fd5b826000803373ffffffffffffffffffffffffffffffffffffffff1673ffffffffffffffffffffffffffffffffffffffff1681526020019081526020016000205410156106a6576040517f08c379a00000000000000000000000000000000000000000000000000000000081526004018080602001828103825260248152602001806108c06024913960400191505060405180910390fd5b600160009054906101000a900473ffffffffffffffffffffffffffffffffffffffff1673ffffffffffffffffffffffffffffffffffffffff1663a9059cbb33856040518363ffffffff1660e01b8152600401808373ffffffffffffffffffffffffffffffffffffffff1673ffffffffffffffffffffffffffffffffffffffff16815260200182815260200192505050602060405180830381600087803b15801561074f57600080fd5b505af1158015610763573d6000803e3d6000fd5b505050506040513d602081101561077957600080fd5b810190808051906020019092919050505015610855578281036000803373ffffffffffffffffffffffffffffffffffffffff1673ffffffffffffffffffffffffffffffffffffffff168152602001908152602001600020819055507fa8e701dc4bf89974592c775c82a2b6f6b2241d9d769a4e9d9ca402f90620b1d833600185604051808473ffffffffffffffffffffffffffffffffffffffff1673ffffffffffffffffffffffffffffffffffffffff16815260200183151515158152602001828152602001935050505060405180910390a182915050610857565b505b919050565b600160009054906101000a900473ffffffffffffffffffffffffffffffffffffffff1681565b6000602052806000526040600020600091509050548156fe596f752063616e27742077697468647261772c20796f7520686f6c64206e6f20746f6b656e596f752063616e27742077697468647261772c206e6f20656e6f75676820746f6b656e73a26469706673582212201b1b0ddaaf261d34f5324bac2c3fa6fb572f4baeadf82482c66524edbc58f13b64736f6c63430006020033",
  "source": "\r\npragma solidity ^0.6.0;\r\nimport './ERC20Claimable.sol';\r\n\r\n\r\ncontract ExerciceSolution {\r\n\r\n    // keep track of adresses who claim token and the amount\r\n    mapping(address => uint256) public claimedTokenAddress;\r\n    ERC20Claimable public Claimable;\r\n\r\n    constructor( ERC20Claimable _claimableERC20) \r\n\tpublic \r\n\t{\r\n\t\tClaimable = _claimableERC20; //0xb5d82FEE98d62cb7Bc76eabAd5879fa4b29fFE94\r\n\t}\r\n\r\n    //gets called when money is sent to this contract ;\r\n    fallback () external payable \r\n\t{}\r\n    // called when ether is sent to a contract with no calldata , when no other function matches\r\n\treceive () external payable \r\n\t{}\r\n\r\n    // ex2_claimedFromContract\r\n    // function to laiming tokens through ExerciceSolution Contract\r\n    event claimed(address addrClaimer , bool status , uint256 amount);\r\n    function claimTokensOnBehalf() public {\r\n        //see last amount , balance of tokens claimed\r\n        uint256 claimerBalance = Claimable.balanceOf(address(this));\r\n        // claim tokens\r\n        Claimable.claimTokens();\r\n        // save new balance\r\n        uint256 newClaimerBalance = Claimable.balanceOf(address(this));\r\n        // save the varriation amount \r\n        uint256 update = newClaimerBalance - claimerBalance;\r\n        // keep track of it \r\n        claimedTokenAddress[msg.sender]+= update;\r\n        emit claimed(msg.sender,true,update);\r\n    }\r\n    // Verifying if ExerciceSolution kept track of [msg.sender] balance\r\n\tfunction tokensInCustody(address callerAddress) public returns (uint256) {\r\n\r\n        // see the tracker \r\n        return claimedTokenAddress[callerAddress];\r\n\r\n    }\r\n\r\n    //ex3_withdrawFromContract\r\n    // function to withdraw tokens through ExerciceSolution Contract\r\n    event withdrawn(address addrwithdrawer , bool status , uint256 amount);\r\n\tfunction withdrawTokens(uint256 amountToWithdraw) public returns (uint256){\r\n\r\n        // Checking how many tokens the Withdrawer hold and can withdraw\r\n        uint256 claimerBalance = claimedTokenAddress[msg.sender];\r\n        require(claimedTokenAddress[msg.sender] > 0, \"You can't withdraw, you hold no token\");\r\n        // suffisant amount of token ?\r\n        require(claimedTokenAddress[msg.sender] >= amountToWithdraw, \"You can't withdraw, no enough tokens\");\r\n\r\n        //withdraw , check and keep track of tokens\r\n        //Claimable.transfer(msg.sender,amountToWithdraw);\r\n        if(Claimable.transfer(msg.sender,amountToWithdraw))\r\n        {\r\n            //update tokensInCustody\r\n            claimedTokenAddress[msg.sender] = claimerBalance - amountToWithdraw;\r\n            emit withdrawn(msg.sender, true, amountToWithdraw);\r\n            return amountToWithdraw;\r\n        }\r\n    }\r\n    /*\r\n    // ex6_depositTokens\r\n    // function to deposit claimableTokens in ExerciceSolution Contract\r\n\tfunction depositTokens(uint256 amountToWithdraw) public returns (uint256){\r\n\r\n    }\r\n    // Get ExerciceSolutionERC20 address\r\n\tfunction getERC20DepositAddress() public returns (address){\r\n        return adress;\r\n    // */\r\n}",
  "sourcePath": "C:\\Users\\BJeab\\OneDrive\\Documents\\ESILV\\Monnaies Numériques\\TD6\\DEFI_ERC20\\erc20-102\\contracts\\ExerciceSolution.sol",
  "compiler": {
    "name": "solc",
    "version": "0.6.2+commit.bacdbe57.Emscripten.clang"
  },
  "schemaVersion": "3.4.3",
  "updatedAt": "2021-11-25T20:28:03.112Z",
  "networkType": "ethereum",
  "devdoc": {
    "methods": {}
  },
  "userdoc": {
    "methods": {}
  }
}