{
  "contractName": "ExerciceSolution",
  "abi": [
    {
      "inputs": [
        {
          "internalType": "contract ERC20Claimable",
          "name": "_claimableERC20",
          "type": "address"
        }
      ],
      "stateMutability": "nonpayable",
      "type": "constructor"
    },
    {
      "anonymous": false,
      "inputs": [
        {
          "indexed": false,
          "internalType": "address",
          "name": "addrClaimer",
          "type": "address"
        },
        {
          "indexed": false,
          "internalType": "bool",
          "name": "status",
          "type": "bool"
        },
        {
          "indexed": false,
          "internalType": "uint256",
          "name": "amount",
          "type": "uint256"
        }
      ],
      "name": "claimed",
      "type": "event"
    },
    {
      "stateMutability": "payable",
      "type": "fallback",
      "payable": true
    },
    {
      "inputs": [],
      "name": "Claimable",
      "outputs": [
        {
          "internalType": "contract ERC20Claimable",
          "name": "",
          "type": "address"
        }
      ],
      "stateMutability": "view",
      "type": "function",
      "constant": true
    },
    {
      "inputs": [
        {
          "internalType": "address",
          "name": "",
          "type": "address"
        }
      ],
      "name": "claimedTokenAddress",
      "outputs": [
        {
          "internalType": "uint256",
          "name": "",
          "type": "uint256"
        }
      ],
      "stateMutability": "view",
      "type": "function",
      "constant": true
    },
    {
      "stateMutability": "payable",
      "type": "receive",
      "payable": true
    },
    {
      "inputs": [],
      "name": "claimTokensOnBehalf",
      "outputs": [],
      "stateMutability": "nonpayable",
      "type": "function"
    },
    {
      "inputs": [
        {
          "internalType": "address",
          "name": "callerAddress",
          "type": "address"
        }
      ],
      "name": "tokensInCustody",
      "outputs": [
        {
          "internalType": "uint256",
          "name": "",
          "type": "uint256"
        }
      ],
      "stateMutability": "nonpayable",
      "type": "function"
    }
  ],
  "bytecode": "0x608060405234801561001057600080fd5b506040516105e33803806105e38339818101604052602081101561003357600080fd5b810190808051906020019092919050505080600160006101000a81548173ffffffffffffffffffffffffffffffffffffffff021916908373ffffffffffffffffffffffffffffffffffffffff1602179055505061054e806100956000396000f3fe6080604052600436106100435760003560e01c80630776d1181461004c5780630e4f7f36146100b1578063402a1d4f146100c8578063a66d0bd51461011f5761004a565b3661004a57005b005b34801561005857600080fd5b5061009b6004803603602081101561006f57600080fd5b81019080803573ffffffffffffffffffffffffffffffffffffffff169060200190929190505050610184565b6040518082815260200191505060405180910390f35b3480156100bd57600080fd5b506100c66101cc565b005b3480156100d457600080fd5b506100dd6104da565b604051808273ffffffffffffffffffffffffffffffffffffffff1673ffffffffffffffffffffffffffffffffffffffff16815260200191505060405180910390f35b34801561012b57600080fd5b5061016e6004803603602081101561014257600080fd5b81019080803573ffffffffffffffffffffffffffffffffffffffff169060200190929190505050610500565b6040518082815260200191505060405180910390f35b60008060008373ffffffffffffffffffffffffffffffffffffffff1673ffffffffffffffffffffffffffffffffffffffff168152602001908152602001600020549050919050565b6000600160009054906101000a900473ffffffffffffffffffffffffffffffffffffffff1673ffffffffffffffffffffffffffffffffffffffff166370a08231306040518263ffffffff1660e01b8152600401808273ffffffffffffffffffffffffffffffffffffffff1673ffffffffffffffffffffffffffffffffffffffff16815260200191505060206040518083038186803b15801561026d57600080fd5b505afa158015610281573d6000803e3d6000fd5b505050506040513d602081101561029757600080fd5b81019080805190602001909291905050509050600160009054906101000a900473ffffffffffffffffffffffffffffffffffffffff1673ffffffffffffffffffffffffffffffffffffffff166348c54b9d6040518163ffffffff1660e01b8152600401600060405180830381600087803b15801561031457600080fd5b505af1158015610328573d6000803e3d6000fd5b505050506000600160009054906101000a900473ffffffffffffffffffffffffffffffffffffffff1673ffffffffffffffffffffffffffffffffffffffff166370a08231306040518263ffffffff1660e01b8152600401808273ffffffffffffffffffffffffffffffffffffffff1673ffffffffffffffffffffffffffffffffffffffff16815260200191505060206040518083038186803b1580156103cd57600080fd5b505afa1580156103e1573d6000803e3d6000fd5b505050506040513d60208110156103f757600080fd5b8101908080519060200190929190505050905060008282039050806000803373ffffffffffffffffffffffffffffffffffffffff1673ffffffffffffffffffffffffffffffffffffffff168152602001908152602001600020600082825401925050819055507f3a2ab24c5a179e8d93bc9d204157eea96a3a8de401f3fb03bdba07fb672284f433600183604051808473ffffffffffffffffffffffffffffffffffffffff1673ffffffffffffffffffffffffffffffffffffffff16815260200183151515158152602001828152602001935050505060405180910390a1505050565b600160009054906101000a900473ffffffffffffffffffffffffffffffffffffffff1681565b6000602052806000526040600020600091509050548156fea2646970667358221220cfb986aa36347e1655f2f091a2ba5a3d4240d3819359e662dbfa451ae89627a064736f6c63430006020033",
  "source": "\r\npragma solidity ^0.6.0;\r\nimport './ERC20Claimable.sol';\r\n\r\n\r\ncontract ExerciceSolution {\r\n\r\n    // keep track of adresses who claim token and the amount\r\n    mapping(address => uint256) public claimedTokenAddress;\r\n    ERC20Claimable public Claimable;\r\n\r\n    constructor( ERC20Claimable _claimableERC20) \r\n\tpublic \r\n\t{\r\n\t\tClaimable = _claimableERC20; //0xb5d82FEE98d62cb7Bc76eabAd5879fa4b29fFE94\r\n\t}\r\n\r\n    //gets called when money is sent to this contract ;\r\n    fallback () external payable \r\n\t{}\r\n    // called when ether is sent to a contract with no calldata , when no other function matches\r\n\treceive () external payable \r\n\t{}\r\n\r\n    // ex2_claimedFromContract\r\n    // function to laiming tokens through ExerciceSolution Contract\r\n    event claimed(address addrClaimer , bool status , uint256 amount);\r\n    function claimTokensOnBehalf() public {\r\n        //see last amount , balance of tokens claimed\r\n        uint256 claimerBalance = Claimable.balanceOf(address(this));\r\n        // claim tokens\r\n        Claimable.claimTokens();\r\n        // save new balance\r\n        uint256 newClaimerBalance = Claimable.balanceOf(address(this));\r\n        // save the varriation amount \r\n        uint256 update = newClaimerBalance - claimerBalance;\r\n        // keep track of it \r\n        claimedTokenAddress[msg.sender]+= update;\r\n        emit claimed(msg.sender,true,update);\r\n    }\r\n    // Verifying if ExerciceSolution kept track of [msg.sender] balance\r\n\tfunction tokensInCustody(address callerAddress) public returns (uint256) {\r\n\r\n        // see the tracker \r\n        return claimedTokenAddress[callerAddress];\r\n\r\n    }\r\n\r\n    /*\r\n    //ex3_withdrawFromContract\r\n    // function to withdraw tokens through ExerciceSolution Contract\r\n\tfunction withdrawTokens(uint256 amountToWithdraw) public returns (uint256){\r\n\r\n    }\r\n    // ex6_depositTokens\r\n    // function to deposit claimableTokens in ExerciceSolution Contract\r\n\tfunction depositTokens(uint256 amountToWithdraw) public returns (uint256){\r\n\r\n    }\r\n    // Get ExerciceSolutionERC20 address\r\n\tfunction getERC20DepositAddress() public returns (address){\r\n        return adress;\r\n    // */\r\n}",
  "sourcePath": "C:\\Users\\BJeab\\OneDrive\\Documents\\ESILV\\Monnaies Numériques\\TD6\\DEFI_ERC20\\erc20-102\\contracts\\ExerciceSolution.sol",
  "compiler": {
    "name": "solc",
    "version": "0.6.2+commit.bacdbe57.Emscripten.clang"
  },
  "schemaVersion": "3.4.3",
  "updatedAt": "2021-11-25T18:19:17.044Z",
  "networkType": "ethereum",
  "devdoc": {
    "methods": {}
  },
  "userdoc": {
    "methods": {}
  }
}