{
  "contractName": "ExerciceSolution",
  "abi": [
    {
      "inputs": [
        {
          "internalType": "contract ERC20Claimable",
          "name": "_claimableERC20",
          "type": "address"
        },
        {
          "internalType": "contract ExerciceSolutionToken",
          "name": "_tokenDepositAdr",
          "type": "address"
        }
      ],
      "stateMutability": "nonpayable",
      "type": "constructor"
    },
    {
      "anonymous": false,
      "inputs": [
        {
          "indexed": false,
          "internalType": "address",
          "name": "addrClaimer",
          "type": "address"
        },
        {
          "indexed": false,
          "internalType": "bool",
          "name": "status",
          "type": "bool"
        },
        {
          "indexed": false,
          "internalType": "uint256",
          "name": "amount",
          "type": "uint256"
        }
      ],
      "name": "claimed",
      "type": "event"
    },
    {
      "anonymous": false,
      "inputs": [
        {
          "indexed": false,
          "internalType": "address",
          "name": "addrdepositor",
          "type": "address"
        },
        {
          "indexed": false,
          "internalType": "bool",
          "name": "status",
          "type": "bool"
        },
        {
          "indexed": false,
          "internalType": "uint256",
          "name": "amount",
          "type": "uint256"
        }
      ],
      "name": "deposit",
      "type": "event"
    },
    {
      "anonymous": false,
      "inputs": [
        {
          "indexed": false,
          "internalType": "address",
          "name": "addrwithdrawer",
          "type": "address"
        },
        {
          "indexed": false,
          "internalType": "bool",
          "name": "status",
          "type": "bool"
        },
        {
          "indexed": false,
          "internalType": "uint256",
          "name": "amount",
          "type": "uint256"
        }
      ],
      "name": "withdrawn",
      "type": "event"
    },
    {
      "stateMutability": "payable",
      "type": "fallback",
      "payable": true
    },
    {
      "inputs": [],
      "name": "Claimable",
      "outputs": [
        {
          "internalType": "contract ERC20Claimable",
          "name": "",
          "type": "address"
        }
      ],
      "stateMutability": "view",
      "type": "function",
      "constant": true
    },
    {
      "inputs": [],
      "name": "Token",
      "outputs": [
        {
          "internalType": "contract ExerciceSolutionToken",
          "name": "",
          "type": "address"
        }
      ],
      "stateMutability": "view",
      "type": "function",
      "constant": true
    },
    {
      "inputs": [
        {
          "internalType": "address",
          "name": "",
          "type": "address"
        }
      ],
      "name": "claimedTokenAddress",
      "outputs": [
        {
          "internalType": "uint256",
          "name": "",
          "type": "uint256"
        }
      ],
      "stateMutability": "view",
      "type": "function",
      "constant": true
    },
    {
      "stateMutability": "payable",
      "type": "receive",
      "payable": true
    },
    {
      "inputs": [],
      "name": "claimTokensOnBehalf",
      "outputs": [],
      "stateMutability": "nonpayable",
      "type": "function"
    },
    {
      "inputs": [
        {
          "internalType": "address",
          "name": "callerAddress",
          "type": "address"
        }
      ],
      "name": "tokensInCustody",
      "outputs": [
        {
          "internalType": "uint256",
          "name": "",
          "type": "uint256"
        }
      ],
      "stateMutability": "nonpayable",
      "type": "function"
    },
    {
      "inputs": [
        {
          "internalType": "uint256",
          "name": "amountToWithdraw",
          "type": "uint256"
        }
      ],
      "name": "withdrawTokens",
      "outputs": [
        {
          "internalType": "uint256",
          "name": "",
          "type": "uint256"
        }
      ],
      "stateMutability": "nonpayable",
      "type": "function"
    },
    {
      "inputs": [
        {
          "internalType": "uint256",
          "name": "amountToDeposit",
          "type": "uint256"
        }
      ],
      "name": "depositTokens",
      "outputs": [
        {
          "internalType": "uint256",
          "name": "",
          "type": "uint256"
        }
      ],
      "stateMutability": "nonpayable",
      "type": "function"
    },
    {
      "inputs": [],
      "name": "getERC20DepositAddress",
      "outputs": [
        {
          "internalType": "address",
          "name": "",
          "type": "address"
        }
      ],
      "stateMutability": "nonpayable",
      "type": "function"
    }
  ],
  "bytecode": "0x608060405234801561001057600080fd5b50604051610f9e380380610f9e8339818101604052604081101561003357600080fd5b81019080805190602001909291908051906020019092919050505081600160006101000a81548173ffffffffffffffffffffffffffffffffffffffff021916908373ffffffffffffffffffffffffffffffffffffffff16021790555080600260006101000a81548173ffffffffffffffffffffffffffffffffffffffff021916908373ffffffffffffffffffffffffffffffffffffffff1602179055505050610ebd806100e16000396000f3fe60806040526004361061007f5760003560e01c8063402a1d4f1161004e578063402a1d4f146101aa578063a66d0bd514610201578063c241267614610266578063dd49756e146102bd57610086565b80630776d118146100885780630e4f7f36146100ed57806319fa44cd14610104578063315a095d1461015b57610086565b3661008657005b005b34801561009457600080fd5b506100d7600480360360208110156100ab57600080fd5b81019080803573ffffffffffffffffffffffffffffffffffffffff16906020019092919050505061030c565b6040518082815260200191505060405180910390f35b3480156100f957600080fd5b50610102610354565b005b34801561011057600080fd5b50610119610662565b604051808273ffffffffffffffffffffffffffffffffffffffff1673ffffffffffffffffffffffffffffffffffffffff16815260200191505060405180910390f35b34801561016757600080fd5b506101946004803603602081101561017e57600080fd5b810190808035906020019092919050505061068c565b6040518082815260200191505060405180910390f35b3480156101b657600080fd5b506101bf610a75565b604051808273ffffffffffffffffffffffffffffffffffffffff1673ffffffffffffffffffffffffffffffffffffffff16815260200191505060405180910390f35b34801561020d57600080fd5b506102506004803603602081101561022457600080fd5b81019080803573ffffffffffffffffffffffffffffffffffffffff169060200190929190505050610a9b565b6040518082815260200191505060405180910390f35b34801561027257600080fd5b5061027b610ab3565b604051808273ffffffffffffffffffffffffffffffffffffffff1673ffffffffffffffffffffffffffffffffffffffff16815260200191505060405180910390f35b3480156102c957600080fd5b506102f6600480360360208110156102e057600080fd5b8101908080359060200190929190505050610ad9565b6040518082815260200191505060405180910390f35b60008060008373ffffffffffffffffffffffffffffffffffffffff1673ffffffffffffffffffffffffffffffffffffffff168152602001908152602001600020549050919050565b6000600160009054906101000a900473ffffffffffffffffffffffffffffffffffffffff1673ffffffffffffffffffffffffffffffffffffffff166370a08231306040518263ffffffff1660e01b8152600401808273ffffffffffffffffffffffffffffffffffffffff1673ffffffffffffffffffffffffffffffffffffffff16815260200191505060206040518083038186803b1580156103f557600080fd5b505afa158015610409573d6000803e3d6000fd5b505050506040513d602081101561041f57600080fd5b81019080805190602001909291905050509050600160009054906101000a900473ffffffffffffffffffffffffffffffffffffffff1673ffffffffffffffffffffffffffffffffffffffff166348c54b9d6040518163ffffffff1660e01b8152600401600060405180830381600087803b15801561049c57600080fd5b505af11580156104b0573d6000803e3d6000fd5b505050506000600160009054906101000a900473ffffffffffffffffffffffffffffffffffffffff1673ffffffffffffffffffffffffffffffffffffffff166370a08231306040518263ffffffff1660e01b8152600401808273ffffffffffffffffffffffffffffffffffffffff1673ffffffffffffffffffffffffffffffffffffffff16815260200191505060206040518083038186803b15801561055557600080fd5b505afa158015610569573d6000803e3d6000fd5b505050506040513d602081101561057f57600080fd5b8101908080519060200190929190505050905060008282039050806000803373ffffffffffffffffffffffffffffffffffffffff1673ffffffffffffffffffffffffffffffffffffffff168152602001908152602001600020600082825401925050819055507f3a2ab24c5a179e8d93bc9d204157eea96a3a8de401f3fb03bdba07fb672284f433600183604051808473ffffffffffffffffffffffffffffffffffffffff1673ffffffffffffffffffffffffffffffffffffffff16815260200183151515158152602001828152602001935050505060405180910390a1505050565b6000600260009054906101000a900473ffffffffffffffffffffffffffffffffffffffff16905090565b6000806000803373ffffffffffffffffffffffffffffffffffffffff1673ffffffffffffffffffffffffffffffffffffffff16815260200190815260200160002054905060008060003373ffffffffffffffffffffffffffffffffffffffff1673ffffffffffffffffffffffffffffffffffffffff1681526020019081526020016000205411610767576040517f08c379a0000000000000000000000000000000000000000000000000000000008152600401808060200182810382526025815260200180610e3f6025913960400191505060405180910390fd5b826000803373ffffffffffffffffffffffffffffffffffffffff1673ffffffffffffffffffffffffffffffffffffffff1681526020019081526020016000205410156107fe576040517f08c379a0000000000000000000000000000000000000000000000000000000008152600401808060200182810382526024815260200180610e646024913960400191505060405180910390fd5b600160009054906101000a900473ffffffffffffffffffffffffffffffffffffffff1673ffffffffffffffffffffffffffffffffffffffff1663a9059cbb33856040518363ffffffff1660e01b8152600401808373ffffffffffffffffffffffffffffffffffffffff1673ffffffffffffffffffffffffffffffffffffffff16815260200182815260200192505050602060405180830381600087803b1580156108a757600080fd5b505af11580156108bb573d6000803e3d6000fd5b505050506040513d60208110156108d157600080fd5b810190808051906020019092919050505015610a6e578281036000803373ffffffffffffffffffffffffffffffffffffffff1673ffffffffffffffffffffffffffffffffffffffff16815260200190815260200160002081905550600260009054906101000a900473ffffffffffffffffffffffffffffffffffffffff1673ffffffffffffffffffffffffffffffffffffffff16639dc29fac33856040518363ffffffff1660e01b8152600401808373ffffffffffffffffffffffffffffffffffffffff1673ffffffffffffffffffffffffffffffffffffffff16815260200182815260200192505050600060405180830381600087803b1580156109d557600080fd5b505af11580156109e9573d6000803e3d6000fd5b505050507fa8e701dc4bf89974592c775c82a2b6f6b2241d9d769a4e9d9ca402f90620b1d833600185604051808473ffffffffffffffffffffffffffffffffffffffff1673ffffffffffffffffffffffffffffffffffffffff16815260200183151515158152602001828152602001935050505060405180910390a182915050610a70565b505b919050565b600160009054906101000a900473ffffffffffffffffffffffffffffffffffffffff1681565b60006020528060005260406000206000915090505481565b600260009054906101000a900473ffffffffffffffffffffffffffffffffffffffff1681565b6000806000803373ffffffffffffffffffffffffffffffffffffffff1673ffffffffffffffffffffffffffffffffffffffff16815260200190815260200160002054905060008311610b93576040517f08c379a00000000000000000000000000000000000000000000000000000000081526004018080602001828103825260138152602001807f6e6f20746f6b656e20746f206465706f7369740000000000000000000000000081525060200191505060405180910390fd5b600160009054906101000a900473ffffffffffffffffffffffffffffffffffffffff1673ffffffffffffffffffffffffffffffffffffffff166323b872dd3330866040518463ffffffff1660e01b8152600401808473ffffffffffffffffffffffffffffffffffffffff1673ffffffffffffffffffffffffffffffffffffffff1681526020018373ffffffffffffffffffffffffffffffffffffffff1673ffffffffffffffffffffffffffffffffffffffff1681526020018281526020019350505050602060405180830381600087803b158015610c7057600080fd5b505af1158015610c84573d6000803e3d6000fd5b505050506040513d6020811015610c9a57600080fd5b810190808051906020019092919050505015610e37578281016000803373ffffffffffffffffffffffffffffffffffffffff1673ffffffffffffffffffffffffffffffffffffffff16815260200190815260200160002081905550600260009054906101000a900473ffffffffffffffffffffffffffffffffffffffff1673ffffffffffffffffffffffffffffffffffffffff166340c10f1933856040518363ffffffff1660e01b8152600401808373ffffffffffffffffffffffffffffffffffffffff1673ffffffffffffffffffffffffffffffffffffffff16815260200182815260200192505050600060405180830381600087803b158015610d9e57600080fd5b505af1158015610db2573d6000803e3d6000fd5b505050507f99b90563ef6bd2a70717f16e165929f7e4f1b5b533714308ca067b2b34ccbafa33600185604051808473ffffffffffffffffffffffffffffffffffffffff1673ffffffffffffffffffffffffffffffffffffffff16815260200183151515158152602001828152602001935050505060405180910390a182915050610e39565b505b91905056fe596f752063616e27742077697468647261772c20796f7520686f6c64206e6f20746f6b656e596f752063616e27742077697468647261772c206e6f20656e6f75676820746f6b656e73a2646970667358221220a9e460f1903b6a0c98bad196a544c2c897b0add148efdb4f0d4813b04388de2264736f6c63430006020033",
  "source": "\r\npragma solidity ^0.6.0;\r\nimport './ERC20Claimable.sol';\r\nimport './ExerciceSolutionToken.sol';\r\n\r\ncontract ExerciceSolution {\r\n\r\n    // keep track of adresses who claim token and the amount\r\n    mapping(address => uint256) public claimedTokenAddress;\r\n    ERC20Claimable public Claimable;\r\n    ExerciceSolutionToken public Token;\r\n\r\n    constructor( ERC20Claimable _claimableERC20, ExerciceSolutionToken _tokenDepositAdr) \r\n\tpublic \r\n\t{\r\n\t\tClaimable = _claimableERC20; //0xb5d82FEE98d62cb7Bc76eabAd5879fa4b29fFE94\r\n        Token = _tokenDepositAdr;\r\n\t}\r\n\r\n    //gets called when money is sent to this contract ;\r\n    fallback () external payable \r\n\t{}\r\n    // called when ether is sent to a contract with no calldata , when no other function matches\r\n\treceive () external payable \r\n\t{}\r\n\r\n    // ex2_claimedFromContract\r\n    // function to laiming tokens through ExerciceSolution Contract\r\n    event claimed(address addrClaimer , bool status , uint256 amount);\r\n    function claimTokensOnBehalf() public {\r\n        //see last amount , balance of tokens claimed\r\n        uint256 claimerBalance = Claimable.balanceOf(address(this));\r\n        // claim tokens\r\n        Claimable.claimTokens();\r\n        // save new balance\r\n        uint256 newClaimerBalance = Claimable.balanceOf(address(this));\r\n        // save the varriation amount \r\n        uint256 update = newClaimerBalance - claimerBalance;\r\n        // keep track of it \r\n        claimedTokenAddress[msg.sender]+= update;\r\n        emit claimed(msg.sender,true,update);\r\n    }\r\n    // Verifying if ExerciceSolution kept track of [msg.sender] balance\r\n\tfunction tokensInCustody(address callerAddress) public returns (uint256) {\r\n\r\n        // see the tracker \r\n        return claimedTokenAddress[callerAddress];\r\n\r\n    }\r\n\r\n    //ex3_withdrawFromContract\r\n    // function to withdraw tokens through ExerciceSolution Contract\r\n    event withdrawn(address addrwithdrawer , bool status , uint256 amount);\r\n\tfunction withdrawTokens(uint256 amountToWithdraw) public returns (uint256){\r\n\r\n        // Checking how many tokens the Withdrawer hold and can withdraw\r\n        uint256 claimerBalance = claimedTokenAddress[msg.sender];\r\n        require(claimedTokenAddress[msg.sender] > 0, \"You can't withdraw, you hold no token\");\r\n        // suffisant amount of token ?\r\n        require(claimedTokenAddress[msg.sender] >= amountToWithdraw, \"You can't withdraw, no enough tokens\");\r\n\r\n        //withdraw , check and keep track of tokens\r\n        //Claimable.transfer(msg.sender,amountToWithdraw);\r\n        if(Claimable.transfer(msg.sender,amountToWithdraw))\r\n        {\r\n            //update tokensInCustody\r\n            claimedTokenAddress[msg.sender] = claimerBalance - amountToWithdraw;\r\n            //update the balance is tokenized : burn the withdrawn tokens\r\n            Token.burn(msg.sender,amountToWithdraw);\r\n            emit withdrawn(msg.sender, true, amountToWithdraw);\r\n            return amountToWithdraw;\r\n        }\r\n    }\r\n    \r\n    // ex6_depositTokens\r\n    // function to deposit claimableTokens in ExerciceSolution Contract\r\n    event deposit(address addrdepositor, bool status , uint256 amount);\r\n\tfunction depositTokens(uint256 amountToDeposit) public returns (uint256){\r\n\r\n        uint256 claimerBalance = claimedTokenAddress[msg.sender];\r\n        require(amountToDeposit > 0, \"no token to deposit\");\r\n        // we will be allowed to manipulate msg.sender token with the amount to deposit\r\n        // lets transfer the token in ExerciceSolution contract\r\n        if(Claimable.transferFrom(msg.sender,address(this),amountToDeposit))\r\n        {\r\n            //update tokensInCustody that belongs to depositor\r\n            claimedTokenAddress[msg.sender] = claimerBalance + amountToDeposit;\r\n            //update the balance is tokenized\r\n            Token.mint(msg.sender,amountToDeposit);\r\n            emit deposit(msg.sender, true, amountToDeposit);\r\n            return amountToDeposit;\r\n        }\r\n    }\r\n    // Get ExerciceSolutionERC20Token address\r\n\tfunction getERC20DepositAddress() public returns (address){\r\n        return address(Token);\r\n    }\r\n}",
  "sourcePath": "C:\\Users\\BJeab\\OneDrive\\Documents\\ESILV\\Monnaies Numériques\\TD6\\DEFI_ERC20\\erc20-102\\contracts\\ExerciceSolution.sol",
  "compiler": {
    "name": "solc",
    "version": "0.6.2+commit.bacdbe57.Emscripten.clang"
  },
  "schemaVersion": "3.4.3",
  "updatedAt": "2021-11-26T02:26:03.980Z",
  "networkType": "ethereum",
  "devdoc": {
    "methods": {}
  },
  "userdoc": {
    "methods": {}
  }
}